{
  "contractName": "Product",
  "abi": [
    {
      "inputs": [],
      "stateMutability": "nonpayable",
      "type": "constructor"
    },
    {
      "inputs": [
        {
          "internalType": "string",
          "name": "_name",
          "type": "string"
        },
        {
          "internalType": "string",
          "name": "_producer",
          "type": "string"
        },
        {
          "internalType": "string",
          "name": "_prod_location",
          "type": "string"
        },
        {
          "internalType": "uint256",
          "name": "_prod_date",
          "type": "uint256"
        }
      ],
      "name": "init",
      "outputs": [],
      "stateMutability": "nonpayable",
      "type": "function"
    },
    {
      "inputs": [],
      "name": "useThis",
      "outputs": [],
      "stateMutability": "nonpayable",
      "type": "function"
    },
    {
      "inputs": [
        {
          "internalType": "address",
          "name": "product",
          "type": "address"
        }
      ],
      "name": "addConstituent",
      "outputs": [],
      "stateMutability": "nonpayable",
      "type": "function"
    },
    {
      "inputs": [],
      "name": "finishProduct",
      "outputs": [],
      "stateMutability": "nonpayable",
      "type": "function"
    },
    {
      "inputs": [],
      "name": "getName",
      "outputs": [
        {
          "internalType": "string",
          "name": "",
          "type": "string"
        }
      ],
      "stateMutability": "view",
      "type": "function"
    },
    {
      "inputs": [],
      "name": "getProducer",
      "outputs": [
        {
          "internalType": "string",
          "name": "",
          "type": "string"
        }
      ],
      "stateMutability": "view",
      "type": "function"
    },
    {
      "inputs": [],
      "name": "getProductionLocation",
      "outputs": [
        {
          "internalType": "string",
          "name": "",
          "type": "string"
        }
      ],
      "stateMutability": "view",
      "type": "function"
    },
    {
      "inputs": [],
      "name": "getProductionDate",
      "outputs": [
        {
          "internalType": "uint256",
          "name": "",
          "type": "uint256"
        }
      ],
      "stateMutability": "view",
      "type": "function"
    },
    {
      "inputs": [],
      "name": "getConstituents",
      "outputs": [
        {
          "internalType": "address[]",
          "name": "",
          "type": "address[]"
        }
      ],
      "stateMutability": "view",
      "type": "function"
    }
  ],
  "bytecode": "0x60806040526000600560006101000a81548160ff0219169083151502179055506000600560016101000a81548160ff0219169083151502179055506000600560026101000a81548160ff0219169083151502179055503480156200006257600080fd5b506040518060400160405280600681526020017f6d6173746572000000000000000000000000000000000000000000000000000081525060009080519060200190620000b0929190620000d2565b506001600560016101000a81548160ff021916908315150217905550620001e7565b828054620000e090620001b1565b90600052602060002090601f01602090048101928262000104576000855562000150565b82601f106200011f57805160ff191683800117855562000150565b8280016001018555821562000150579182015b828111156200014f57825182559160200191906001019062000132565b5b5090506200015f919062000163565b5090565b5b808211156200017e57600081600090555060010162000164565b5090565b7f4e487b7100000000000000000000000000000000000000000000000000000000600052602260045260246000fd5b60006002820490506001821680620001ca57607f821691505b60208210811415620001e157620001e062000182565b5b50919050565b610cfb80620001f76000396000f3fe608060405234801561001057600080fd5b50600436106100925760003560e01c80632f183cfd116100665780632f183cfd146100fb57806337c1fe5414610119578063839d97581461013557806397e175621461013f578063b59fbb1d1461015d57610092565b8062fd53231461009757806310d79f4d146100a157806317482514146100bf57806317d7de7c146100dd575b600080fd5b61009f610179565b005b6100a9610196565b6040516100b6919061079a565b60405180910390f35b6100c7610224565b6040516100d491906107d5565b60405180910390f35b6100e561022e565b6040516100f29190610889565b60405180910390f35b6101036102c0565b6040516101109190610889565b60405180910390f35b610133600480360381019061012e91906108e1565b610352565b005b61013d610408565b005b6101476104c4565b6040516101549190610889565b60405180910390f35b6101776004803603810190610172919061099f565b610556565b005b6001600560026101000a81548160ff021916908315150217905550565b6060600480548060200260200160405190810160405280929190818152602001828054801561021a57602002820191906000526020600020905b8160009054906101000a900473ffffffffffffffffffffffffffffffffffffffff1673ffffffffffffffffffffffffffffffffffffffff16815260200190600101908083116101d0575b5050505050905090565b6000600354905090565b60606000805461023d90610a97565b80601f016020809104026020016040519081016040528092919081815260200182805461026990610a97565b80156102b65780601f1061028b576101008083540402835291602001916102b6565b820191906000526020600020905b81548152906001019060200180831161029957829003601f168201915b5050505050905090565b6060600180546102cf90610a97565b80601f01602080910402602001604051908101604052809291908181526020018280546102fb90610a97565b80156103485780601f1061031d57610100808354040283529160200191610348565b820191906000526020600020905b81548152906001019060200180831161032b57829003601f168201915b5050505050905090565b600560029054906101000a900460ff16156103a2576040517f08c379a000000000000000000000000000000000000000000000000000000000815260040161039990610b3b565b60405180910390fd5b6004819080600181540180825580915050600190039060005260206000200160009091909190916101000a81548173ffffffffffffffffffffffffffffffffffffffff021916908373ffffffffffffffffffffffffffffffffffffffff16021790555050565b600560009054906101000a900460ff1615610458576040517f08c379a000000000000000000000000000000000000000000000000000000000815260040161044f90610bcd565b60405180910390fd5b600560029054906101000a900460ff166104a7576040517f08c379a000000000000000000000000000000000000000000000000000000000815260040161049e90610c39565b60405180910390fd5b6001600560006101000a81548160ff021916908315150217905550565b6060600280546104d390610a97565b80601f01602080910402602001604051908101604052809291908181526020018280546104ff90610a97565b801561054c5780601f106105215761010080835404028352916020019161054c565b820191906000526020600020905b81548152906001019060200180831161052f57829003601f168201915b5050505050905090565b600560019054906101000a900460ff16156105a6576040517f08c379a000000000000000000000000000000000000000000000000000000000815260040161059d90610ca5565b60405180910390fd5b8686600091906105b7929190610607565b508484600191906105c9929190610607565b508282600291906105db929190610607565b50806003819055506001600560016101000a81548160ff02191690831515021790555050505050505050565b82805461061390610a97565b90600052602060002090601f016020900481019282610635576000855561067c565b82601f1061064e57803560ff191683800117855561067c565b8280016001018555821561067c579182015b8281111561067b578235825591602001919060010190610660565b5b509050610689919061068d565b5090565b5b808211156106a657600081600090555060010161068e565b5090565b600081519050919050565b600082825260208201905092915050565b6000819050602082019050919050565b600073ffffffffffffffffffffffffffffffffffffffff82169050919050565b6000610701826106d6565b9050919050565b610711816106f6565b82525050565b60006107238383610708565b60208301905092915050565b6000602082019050919050565b6000610747826106aa565b61075181856106b5565b935061075c836106c6565b8060005b8381101561078d5781516107748882610717565b975061077f8361072f565b925050600181019050610760565b5085935050505092915050565b600060208201905081810360008301526107b4818461073c565b905092915050565b6000819050919050565b6107cf816107bc565b82525050565b60006020820190506107ea60008301846107c6565b92915050565b600081519050919050565b600082825260208201905092915050565b60005b8381101561082a57808201518184015260208101905061080f565b83811115610839576000848401525b50505050565b6000601f19601f8301169050919050565b600061085b826107f0565b61086581856107fb565b935061087581856020860161080c565b61087e8161083f565b840191505092915050565b600060208201905081810360008301526108a38184610850565b905092915050565b600080fd5b600080fd5b6108be816106f6565b81146108c957600080fd5b50565b6000813590506108db816108b5565b92915050565b6000602082840312156108f7576108f66108ab565b5b6000610905848285016108cc565b91505092915050565b600080fd5b600080fd5b600080fd5b60008083601f8401126109335761093261090e565b5b8235905067ffffffffffffffff8111156109505761094f610913565b5b60208301915083600182028301111561096c5761096b610918565b5b9250929050565b61097c816107bc565b811461098757600080fd5b50565b60008135905061099981610973565b92915050565b60008060008060008060006080888a0312156109be576109bd6108ab565b5b600088013567ffffffffffffffff8111156109dc576109db6108b0565b5b6109e88a828b0161091d565b9750975050602088013567ffffffffffffffff811115610a0b57610a0a6108b0565b5b610a178a828b0161091d565b9550955050604088013567ffffffffffffffff811115610a3a57610a396108b0565b5b610a468a828b0161091d565b93509350506060610a598a828b0161098a565b91505092959891949750929550565b7f4e487b7100000000000000000000000000000000000000000000000000000000600052602260045260246000fd5b60006002820490506001821680610aaf57607f821691505b60208210811415610ac357610ac2610a68565b5b50919050565b7f63616e27742061646420636f6e737469747574656e7320746f20636f6d706c6560008201527f7465642070726f64756374000000000000000000000000000000000000000000602082015250565b6000610b25602b836107fb565b9150610b3082610ac9565b604082019050919050565b60006020820190508181036000830152610b5481610b18565b9050919050565b7f70726f6475637420616c7265616479207573656420617320636f73746974756560008201527f6e74000000000000000000000000000000000000000000000000000000000000602082015250565b6000610bb76022836107fb565b9150610bc282610b5b565b604082019050919050565b60006020820190508181036000830152610be681610baa565b9050919050565b7f70726f647563742073686f756c6420626520636f6d706c657465640000000000600082015250565b6000610c23601b836107fb565b9150610c2e82610bed565b602082019050919050565b60006020820190508181036000830152610c5281610c16565b9050919050565b7f636f6e747261637420697320616c726561647920696e697469616c697a656400600082015250565b6000610c8f601f836107fb565b9150610c9a82610c59565b602082019050919050565b60006020820190508181036000830152610cbe81610c82565b905091905056fea26469706673582212209a75ed453d59f13d658153b808ba16f918f0b18c4435092856aacbf4d65da0bf64736f6c634300080b0033",
  "immutableReferences": {},
  "source": "// SPDX-License-Identifier: MIT\r\npragma solidity ^0.8.11;\r\n\r\n\r\ncontract Product {\r\n\r\n    string private name;\r\n    string private producer;\r\n    string private production_location;\r\n    uint256 private production_date;\r\n    address[] private constitutens;\r\n\r\n    bool private isCostituent = false;\r\n    bool private isInitialized = false; \r\n    bool private isFinished = false;\r\n\r\n    modifier notInitd(){\r\n        require(!isInitialized, \"contract is already initialized\");\r\n        _ ; \r\n    }\r\n\r\n    modifier notUsed(){\r\n        require(!isCostituent, \"product already used as costituent\");\r\n        _ ; \r\n    }\r\n\r\n    modifier notFinished(){\r\n        require(!isFinished, \"can't add constitutens to completed product\");\r\n        _ ; \r\n    }\r\n\r\n    modifier Finished(){\r\n        require(isFinished,\"product should be completed\");\r\n        _ ; \r\n    }\r\n\r\n    constructor(){\r\n        name = \"master\";\r\n        isInitialized = true;\r\n    }\r\n\r\n\r\n    function init(string calldata _name,  string calldata _producer, string calldata _prod_location, uint256 _prod_date) external notInitd {\r\n        name = _name;\r\n        producer = _producer;\r\n        production_location = _prod_location;\r\n        production_date = _prod_date;\r\n        isInitialized = true; \r\n    }\r\n\r\n    function useThis() external notUsed Finished{\r\n        isCostituent = true ; \r\n    }\r\n\r\n    function addConstituent(address product) external notFinished { \r\n        constitutens.push(product);\r\n    }\r\n\r\n    function finishProduct() external {\r\n        isFinished = true;\r\n    }\r\n\r\n\r\n    // getters \r\n\r\n    function getName() external view returns(string memory){\r\n        return name;\r\n    }\r\n\r\n    function getProducer() external view returns(string memory){\r\n        return producer;\r\n    }\r\n\r\n    function getProductionLocation() external view returns(string memory){\r\n        return production_location;\r\n    }\r\n\r\n    function getProductionDate() external view returns(uint256){\r\n        return production_date;\r\n    }\r\n\r\n    function getConstituents() external view returns(address[] memory){\r\n        return constitutens;\r\n    }\r\n    \r\n}",
  "sourcePath": "C:\\Users\\Riccardo\\Project\\GitRepo\\dapp\\smartcontract\\contracts\\Product.sol",
  "compiler": {
    "name": "solc",
    "version": "0.8.11+commit.d7f03943.Emscripten.clang"
  },
  "schemaVersion": "3.4.4",
  "updatedAt": "2022-02-17T09:22:47.874Z",
  "devdoc": {
    "kind": "dev",
    "methods": {},
    "version": 1
  },
  "userdoc": {
    "kind": "user",
    "methods": {},
    "version": 1
  }
}