{
  "contractName": "Product",
  "abi": [
    {
      "inputs": [],
      "stateMutability": "nonpayable",
      "type": "constructor"
    },
    {
      "inputs": [
        {
          "internalType": "string",
          "name": "_name",
          "type": "string"
        },
        {
          "internalType": "string",
          "name": "_manufacturer_name",
          "type": "string"
        },
        {
          "internalType": "string",
          "name": "_prod_location",
          "type": "string"
        },
        {
          "internalType": "uint256",
          "name": "_prod_date",
          "type": "uint256"
        },
        {
          "internalType": "address",
          "name": "_owner",
          "type": "address"
        }
      ],
      "name": "init",
      "outputs": [],
      "stateMutability": "nonpayable",
      "type": "function"
    },
    {
      "inputs": [
        {
          "internalType": "address",
          "name": "product",
          "type": "address"
        }
      ],
      "name": "addConstituent",
      "outputs": [],
      "stateMutability": "nonpayable",
      "type": "function"
    },
    {
      "inputs": [
        {
          "internalType": "address",
          "name": "_new_owner",
          "type": "address"
        }
      ],
      "name": "tranfer",
      "outputs": [],
      "stateMutability": "nonpayable",
      "type": "function"
    },
    {
      "inputs": [],
      "name": "markAsUsed",
      "outputs": [],
      "stateMutability": "nonpayable",
      "type": "function"
    },
    {
      "inputs": [],
      "name": "markAsFinished",
      "outputs": [],
      "stateMutability": "nonpayable",
      "type": "function"
    },
    {
      "inputs": [],
      "name": "getProductDetails",
      "outputs": [
        {
          "internalType": "string",
          "name": "",
          "type": "string"
        },
        {
          "internalType": "address",
          "name": "",
          "type": "address"
        },
        {
          "internalType": "string",
          "name": "",
          "type": "string"
        },
        {
          "internalType": "string",
          "name": "",
          "type": "string"
        },
        {
          "internalType": "uint256",
          "name": "",
          "type": "uint256"
        }
      ],
      "stateMutability": "view",
      "type": "function",
      "constant": true
    },
    {
      "inputs": [],
      "name": "getName",
      "outputs": [
        {
          "internalType": "string",
          "name": "",
          "type": "string"
        }
      ],
      "stateMutability": "view",
      "type": "function",
      "constant": true
    },
    {
      "inputs": [],
      "name": "getManufacturer",
      "outputs": [
        {
          "internalType": "address",
          "name": "",
          "type": "address"
        },
        {
          "internalType": "string",
          "name": "",
          "type": "string"
        }
      ],
      "stateMutability": "view",
      "type": "function",
      "constant": true
    },
    {
      "inputs": [],
      "name": "getProductionLocation",
      "outputs": [
        {
          "internalType": "string",
          "name": "",
          "type": "string"
        }
      ],
      "stateMutability": "view",
      "type": "function",
      "constant": true
    },
    {
      "inputs": [],
      "name": "getProductionDate",
      "outputs": [
        {
          "internalType": "uint256",
          "name": "",
          "type": "uint256"
        }
      ],
      "stateMutability": "view",
      "type": "function",
      "constant": true
    },
    {
      "inputs": [],
      "name": "getConstituents",
      "outputs": [
        {
          "internalType": "address[]",
          "name": "",
          "type": "address[]"
        }
      ],
      "stateMutability": "view",
      "type": "function",
      "constant": true
    }
  ],
  "bytecode": "0x60806040526000600660006101000a81548160ff0219169083151502179055506000600660016101000a81548160ff0219169083151502179055506000600660026101000a81548160ff0219169083151502179055503480156200006257600080fd5b506040518060400160405280600681526020017f6d6173746572000000000000000000000000000000000000000000000000000081525060009080519060200190620000b0929190620000d2565b506001600660016101000a81548160ff021916908315150217905550620001e7565b828054620000e090620001b1565b90600052602060002090601f01602090048101928262000104576000855562000150565b82601f106200011f57805160ff191683800117855562000150565b8280016001018555821562000150579182015b828111156200014f57825182559160200191906001019062000132565b5b5090506200015f919062000163565b5090565b5b808211156200017e57600081600090555060010162000164565b5090565b7f4e487b7100000000000000000000000000000000000000000000000000000000600052602260045260246000fd5b60006002820490506001821680620001ca57607f821691505b60208210811415620001e157620001e062000182565b5b50919050565b61137780620001f76000396000f3fe608060405234801561001057600080fd5b50600436106100a95760003560e01c806323bc839b1161007157806323bc839b146101315780632cd26534146101535780632f8c3c9d1461016f57806337c1fe54146101795780634b3e09011461019557806397e17562146101b1576100a9565b806304b0cdda146100ae57806310d79f4d146100cd57806316edbf61146100eb57806317482514146100f557806317d7de7c14610113575b600080fd5b6100b66101cf565b6040516100c4929190610cb4565b60405180910390f35b6100d561028c565b6040516100e29190610da2565b60405180910390f35b6100f361031a565b005b6100fd6103c7565b60405161010a9190610ddd565b60405180910390f35b61011b6103d1565b6040516101289190610df8565b60405180910390f35b610139610463565b60405161014a959493929190610e1a565b60405180910390f35b61016d60048036038101906101689190610eb8565b61064c565b005b6101776106df565b005b610193600480360381019061018e9190610eb8565b61082b565b005b6101af60048036038101906101aa9190610f76565b610971565b005b6101b9610aa5565b6040516101c69190610df8565b60405180910390f35b60006060600160009054906101000a900473ffffffffffffffffffffffffffffffffffffffff16600280805461020490611081565b80601f016020809104026020016040519081016040528092919081815260200182805461023090611081565b801561027d5780601f106102525761010080835404028352916020019161027d565b820191906000526020600020905b81548152906001019060200180831161026057829003601f168201915b50505050509050915091509091565b6060600580548060200260200160405190810160405280929190818152602001828054801561031057602002820191906000526020600020905b8160009054906101000a900473ffffffffffffffffffffffffffffffffffffffff1673ffffffffffffffffffffffffffffffffffffffff16815260200190600101908083116102c6575b5050505050905090565b600660039054906101000a900473ffffffffffffffffffffffffffffffffffffffff1673ffffffffffffffffffffffffffffffffffffffff163373ffffffffffffffffffffffffffffffffffffffff16146103aa576040517f08c379a00000000000000000000000000000000000000000000000000000000081526004016103a190611125565b60405180910390fd5b6001600660026101000a81548160ff021916908315150217905550565b6000600454905090565b6060600080546103e090611081565b80601f016020809104026020016040519081016040528092919081815260200182805461040c90611081565b80156104595780601f1061042e57610100808354040283529160200191610459565b820191906000526020600020905b81548152906001019060200180831161043c57829003601f168201915b5050505050905090565b60606000606080600080600160009054906101000a900473ffffffffffffffffffffffffffffffffffffffff16600260036004548480546104a390611081565b80601f01602080910402602001604051908101604052809291908181526020018280546104cf90611081565b801561051c5780601f106104f15761010080835404028352916020019161051c565b820191906000526020600020905b8154815290600101906020018083116104ff57829003601f168201915b5050505050945082805461052f90611081565b80601f016020809104026020016040519081016040528092919081815260200182805461055b90611081565b80156105a85780601f1061057d576101008083540402835291602001916105a8565b820191906000526020600020905b81548152906001019060200180831161058b57829003601f168201915b505050505092508180546105bb90611081565b80601f01602080910402602001604051908101604052809291908181526020018280546105e790611081565b80156106345780601f1061060957610100808354040283529160200191610634565b820191906000526020600020905b81548152906001019060200180831161061757829003601f168201915b50505050509150945094509450945094509091929394565b600660029054906101000a900460ff1661069b576040517f08c379a000000000000000000000000000000000000000000000000000000000815260040161069290611191565b60405180910390fd5b80600660036101000a81548173ffffffffffffffffffffffffffffffffffffffff021916908373ffffffffffffffffffffffffffffffffffffffff16021790555050565b600660039054906101000a900473ffffffffffffffffffffffffffffffffffffffff1673ffffffffffffffffffffffffffffffffffffffff163373ffffffffffffffffffffffffffffffffffffffff161461076f576040517f08c379a000000000000000000000000000000000000000000000000000000000815260040161076690611125565b60405180910390fd5b600660029054906101000a900460ff166107be576040517f08c379a00000000000000000000000000000000000000000000000000000000081526004016107b590611191565b60405180910390fd5b600660009054906101000a900460ff161561080e576040517f08c379a000000000000000000000000000000000000000000000000000000000815260040161080590611223565b60405180910390fd5b6001600660006101000a81548160ff021916908315150217905550565b600660039054906101000a900473ffffffffffffffffffffffffffffffffffffffff1673ffffffffffffffffffffffffffffffffffffffff163373ffffffffffffffffffffffffffffffffffffffff16146108bb576040517f08c379a00000000000000000000000000000000000000000000000000000000081526004016108b290611125565b60405180910390fd5b600660029054906101000a900460ff161561090b576040517f08c379a0000000000000000000000000000000000000000000000000000000008152600401610902906112b5565b60405180910390fd5b6005819080600181540180825580915050600190039060005260206000200160009091909190916101000a81548173ffffffffffffffffffffffffffffffffffffffff021916908373ffffffffffffffffffffffffffffffffffffffff16021790555050565b600660019054906101000a900460ff16156109c1576040517f08c379a00000000000000000000000000000000000000000000000000000000081526004016109b890611321565b60405180910390fd5b8787600091906109d2929190610b37565b508585600291906109e4929190610b37565b5080600160006101000a81548173ffffffffffffffffffffffffffffffffffffffff021916908373ffffffffffffffffffffffffffffffffffffffff160217905550838360039190610a37929190610b37565b508160048190555080600660036101000a81548173ffffffffffffffffffffffffffffffffffffffff021916908373ffffffffffffffffffffffffffffffffffffffff1602179055506001600660016101000a81548160ff0219169083151502179055505050505050505050565b606060038054610ab490611081565b80601f0160208091040260200160405190810160405280929190818152602001828054610ae090611081565b8015610b2d5780601f10610b0257610100808354040283529160200191610b2d565b820191906000526020600020905b815481529060010190602001808311610b1057829003601f168201915b5050505050905090565b828054610b4390611081565b90600052602060002090601f016020900481019282610b655760008555610bac565b82601f10610b7e57803560ff1916838001178555610bac565b82800160010185558215610bac579182015b82811115610bab578235825591602001919060010190610b90565b5b509050610bb99190610bbd565b5090565b5b80821115610bd6576000816000905550600101610bbe565b5090565b600073ffffffffffffffffffffffffffffffffffffffff82169050919050565b6000610c0582610bda565b9050919050565b610c1581610bfa565b82525050565b600081519050919050565b600082825260208201905092915050565b60005b83811015610c55578082015181840152602081019050610c3a565b83811115610c64576000848401525b50505050565b6000601f19601f8301169050919050565b6000610c8682610c1b565b610c908185610c26565b9350610ca0818560208601610c37565b610ca981610c6a565b840191505092915050565b6000604082019050610cc96000830185610c0c565b8181036020830152610cdb8184610c7b565b90509392505050565b600081519050919050565b600082825260208201905092915050565b6000819050602082019050919050565b610d1981610bfa565b82525050565b6000610d2b8383610d10565b60208301905092915050565b6000602082019050919050565b6000610d4f82610ce4565b610d598185610cef565b9350610d6483610d00565b8060005b83811015610d95578151610d7c8882610d1f565b9750610d8783610d37565b925050600181019050610d68565b5085935050505092915050565b60006020820190508181036000830152610dbc8184610d44565b905092915050565b6000819050919050565b610dd781610dc4565b82525050565b6000602082019050610df26000830184610dce565b92915050565b60006020820190508181036000830152610e128184610c7b565b905092915050565b600060a0820190508181036000830152610e348188610c7b565b9050610e436020830187610c0c565b8181036040830152610e558186610c7b565b90508181036060830152610e698185610c7b565b9050610e786080830184610dce565b9695505050505050565b600080fd5b600080fd5b610e9581610bfa565b8114610ea057600080fd5b50565b600081359050610eb281610e8c565b92915050565b600060208284031215610ece57610ecd610e82565b5b6000610edc84828501610ea3565b91505092915050565b600080fd5b600080fd5b600080fd5b60008083601f840112610f0a57610f09610ee5565b5b8235905067ffffffffffffffff811115610f2757610f26610eea565b5b602083019150836001820283011115610f4357610f42610eef565b5b9250929050565b610f5381610dc4565b8114610f5e57600080fd5b50565b600081359050610f7081610f4a565b92915050565b60008060008060008060008060a0898b031215610f9657610f95610e82565b5b600089013567ffffffffffffffff811115610fb457610fb3610e87565b5b610fc08b828c01610ef4565b9850985050602089013567ffffffffffffffff811115610fe357610fe2610e87565b5b610fef8b828c01610ef4565b9650965050604089013567ffffffffffffffff81111561101257611011610e87565b5b61101e8b828c01610ef4565b945094505060606110318b828c01610f61565b92505060806110428b828c01610ea3565b9150509295985092959890939650565b7f4e487b7100000000000000000000000000000000000000000000000000000000600052602260045260246000fd5b6000600282049050600182168061109957607f821691505b602082108114156110ad576110ac611052565b5b50919050565b7f796f7520617265206e6f7420746865206f776e6572206f66207468697320636f60008201527f6e74726163740000000000000000000000000000000000000000000000000000602082015250565b600061110f602683610c26565b915061111a826110b3565b604082019050919050565b6000602082019050818103600083015261113e81611102565b9050919050565b7f70726f647563742073686f756c642062652066696e6973686564000000000000600082015250565b600061117b601a83610c26565b915061118682611145565b602082019050919050565b600060208201905081810360008301526111aa8161116e565b9050919050565b7f70726f6475637420616c7265616479207573656420617320636f73746974756560008201527f6e74000000000000000000000000000000000000000000000000000000000000602082015250565b600061120d602283610c26565b9150611218826111b1565b604082019050919050565b6000602082019050818103600083015261123c81611200565b9050919050565b7f63616e27742061646420636f6e737469747574656e7320746f20636f6d706c6560008201527f7465642070726f64756374000000000000000000000000000000000000000000602082015250565b600061129f602b83610c26565b91506112aa82611243565b604082019050919050565b600060208201905081810360008301526112ce81611292565b9050919050565b7f636f6e747261637420697320616c726561647920696e697469616c697a656400600082015250565b600061130b601f83610c26565b9150611316826112d5565b602082019050919050565b6000602082019050818103600083015261133a816112fe565b905091905056fea2646970667358221220f9ecbc68856d38eb233a669cd61945c86425b0f00cea8125b06f914bdb315c5e64736f6c634300080b0033",
  "immutableReferences": {},
  "source": "// SPDX-License-Identifier: MIT\r\npragma solidity ^0.8.11;\r\n\r\n\r\ncontract Product {\r\n\r\n    string private name;\r\n    address private manufacturer_address;\r\n    string private manufacturer_name; \r\n    string private production_location;\r\n    uint256 private production_date;\r\n    address[] private constitutens;\r\n\r\n    bool private isCostituent = false;\r\n    bool private isInitialized = false; \r\n    bool private isFinished = false;\r\n\r\n    address private owner;\r\n\r\n    modifier onlyOwner(){\r\n        require(msg.sender == owner, \"you are not the owner of this contract\");\r\n        _;\r\n    }\r\n\r\n    modifier notInitd(){\r\n        require(!isInitialized, \"contract is already initialized\");\r\n        _; \r\n    }\r\n\r\n    modifier notUsed(){\r\n        require(!isCostituent, \"product already used as costituent\");\r\n        _; \r\n    }\r\n\r\n    modifier notFinished(){\r\n        require(!isFinished, \"can't add constitutens to completed product\");\r\n        _; \r\n    }\r\n\r\n    modifier finished(){\r\n        require(isFinished, \"product should be finished\");\r\n        _; \r\n    }\r\n\r\n    constructor(){\r\n        name = \"master\";\r\n        isInitialized = true;\r\n    }\r\n\r\n\r\n    function init(string calldata _name, string calldata _manufacturer_name, string calldata _prod_location, uint256 _prod_date, address _owner) external notInitd {\r\n        name = _name;\r\n        manufacturer_name = _manufacturer_name;\r\n        manufacturer_address = _owner;\r\n        production_location = _prod_location;\r\n        production_date = _prod_date;\r\n        owner = _owner;\r\n        isInitialized = true; \r\n    }\r\n\r\n    function addConstituent(address product) external onlyOwner notFinished { \r\n        constitutens.push(product);\r\n    }\r\n\r\n    function tranfer(address _new_owner) external finished {\r\n        owner = _new_owner;\r\n    }\r\n\r\n    function markAsUsed() external onlyOwner finished notUsed{\r\n        isCostituent = true;\r\n    }\r\n\r\n    function markAsFinished() external onlyOwner {\r\n        isFinished = true;\r\n    }\r\n\r\n    \r\n    // getters \r\n\r\n    function getProductDetails() external view returns(string memory, address, string memory, string memory, uint256){\r\n        return (name,manufacturer_address,manufacturer_name,production_location,production_date);\r\n    }\r\n\r\n    function getName() external view returns(string memory){\r\n        return name;\r\n    }\r\n\r\n    function getManufacturer() external view returns(address, string memory){\r\n        return (manufacturer_address, manufacturer_name);\r\n    }\r\n\r\n    function getProductionLocation() external view returns(string memory){\r\n        return production_location;\r\n    }\r\n\r\n    function getProductionDate() external view returns(uint256){\r\n        return production_date;\r\n    }\r\n\r\n    function getConstituents() external view returns(address[] memory){\r\n        return constitutens;\r\n    }\r\n    \r\n}",
  "sourcePath": "C:\\Users\\Riccardo\\Project\\GitRepo\\dapp\\smartcontract\\contracts\\Product.sol",
  "compiler": {
    "name": "solc",
    "version": "0.8.11+commit.d7f03943.Emscripten.clang"
  },
  "schemaVersion": "3.4.4",
  "updatedAt": "2022-02-19T18:11:11.096Z",
  "networkType": "ethereum",
  "devdoc": {
    "kind": "dev",
    "methods": {},
    "version": 1
  },
  "userdoc": {
    "kind": "user",
    "methods": {},
    "version": 1
  }
}