{
  "contractName": "ProductFactory",
  "abi": [
    {
      "inputs": [
        {
          "internalType": "address",
          "name": "_masterContract",
          "type": "address"
        }
      ],
      "stateMutability": "nonpayable",
      "type": "constructor"
    },
    {
      "anonymous": false,
      "inputs": [
        {
          "indexed": false,
          "internalType": "address",
          "name": "newAddress",
          "type": "address"
        }
      ],
      "name": "ProductCreated",
      "type": "event"
    },
    {
      "inputs": [
        {
          "internalType": "string",
          "name": "_name",
          "type": "string"
        },
        {
          "internalType": "string",
          "name": "_manufacturer_name",
          "type": "string"
        },
        {
          "internalType": "string",
          "name": "_prod_location",
          "type": "string"
        },
        {
          "internalType": "uint256",
          "name": "_prod_date",
          "type": "uint256"
        }
      ],
      "name": "createProduct",
      "outputs": [],
      "stateMutability": "nonpayable",
      "type": "function"
    }
  ],
  "bytecode": "0x608060405234801561001057600080fd5b5060405161058f38038061058f833981810160405281019061003291906100db565b806000806101000a81548173ffffffffffffffffffffffffffffffffffffffff021916908373ffffffffffffffffffffffffffffffffffffffff16021790555050610108565b600080fd5b600073ffffffffffffffffffffffffffffffffffffffff82169050919050565b60006100a88261007d565b9050919050565b6100b88161009d565b81146100c357600080fd5b50565b6000815190506100d5816100af565b92915050565b6000602082840312156100f1576100f0610078565b5b60006100ff848285016100c6565b91505092915050565b610478806101176000396000f3fe608060405234801561001057600080fd5b506004361061002b5760003560e01c80631b61040d14610030575b600080fd5b61004a60048036038101906100459190610242565b61004c565b005b600061007760008054906101000a900473ffffffffffffffffffffffffffffffffffffffff16610133565b90508073ffffffffffffffffffffffffffffffffffffffff16634b3e090189898989898989336040518963ffffffff1660e01b81526004016100c09897969594939291906103b9565b600060405180830381600087803b1580156100da57600080fd5b505af11580156100ee573d6000803e3d6000fd5b505050507f8c13150fc78b6c00b60262790df304fd55ef36a935a98feefd67391de7bfa0de816040516101219190610427565b60405180910390a15050505050505050565b6000808260601b90506040517f3d602d80600a3d3981f3363d3d373d3d3d363d7300000000000000000000000081528160148201527f5af43d82803e903d91602b57fd5bf3000000000000000000000000000000000060288201526037816000f092505050919050565b600080fd5b600080fd5b600080fd5b600080fd5b600080fd5b60008083601f8401126101cc576101cb6101a7565b5b8235905067ffffffffffffffff8111156101e9576101e86101ac565b5b602083019150836001820283011115610205576102046101b1565b5b9250929050565b6000819050919050565b61021f8161020c565b811461022a57600080fd5b50565b60008135905061023c81610216565b92915050565b60008060008060008060006080888a0312156102615761026061019d565b5b600088013567ffffffffffffffff81111561027f5761027e6101a2565b5b61028b8a828b016101b6565b9750975050602088013567ffffffffffffffff8111156102ae576102ad6101a2565b5b6102ba8a828b016101b6565b9550955050604088013567ffffffffffffffff8111156102dd576102dc6101a2565b5b6102e98a828b016101b6565b935093505060606102fc8a828b0161022d565b91505092959891949750929550565b600082825260208201905092915050565b82818337600083830152505050565b6000601f19601f8301169050919050565b6000610348838561030b565b935061035583858461031c565b61035e8361032b565b840190509392505050565b6103728161020c565b82525050565b600073ffffffffffffffffffffffffffffffffffffffff82169050919050565b60006103a382610378565b9050919050565b6103b381610398565b82525050565b600060a08201905081810360008301526103d4818a8c61033c565b905081810360208301526103e981888a61033c565b905081810360408301526103fe81868861033c565b905061040d6060830185610369565b61041a60808301846103aa565b9998505050505050505050565b600060208201905061043c60008301846103aa565b9291505056fea26469706673582212209369999f5acef68731de30b31f046630076b2e3c98be08d2a0f1ac7d6c0d4e7464736f6c634300080b0033",
  "immutableReferences": {},
  "source": "// SPDX-License-Identifier: MIT\r\npragma solidity ^0.8.11;\r\n\r\nimport './Product.sol';\r\n\r\ncontract CloneFactory {\r\n\r\n  function createClone(address target) internal returns (address result) {\r\n    bytes20 targetBytes = bytes20(target);\r\n    assembly {\r\n      let clone := mload(0x40)\r\n      mstore(clone, 0x3d602d80600a3d3981f3363d3d373d3d3d363d73000000000000000000000000)\r\n      mstore(add(clone, 0x14), targetBytes)\r\n      mstore(add(clone, 0x28), 0x5af43d82803e903d91602b57fd5bf30000000000000000000000000000000000)\r\n      result := create(0, clone, 0x37)\r\n    }\r\n  }\r\n\r\n  function isClone(address target, address query) internal view returns (bool result) {\r\n    bytes20 targetBytes = bytes20(target);\r\n    assembly {\r\n      let clone := mload(0x40)\r\n      mstore(clone, 0x363d3d373d3d3d363d7300000000000000000000000000000000000000000000)\r\n      mstore(add(clone, 0xa), targetBytes)\r\n      mstore(add(clone, 0x1e), 0x5af43d82803e903d91602b57fd5bf30000000000000000000000000000000000)\r\n\r\n      let other := add(clone, 0x40)\r\n      extcodecopy(query, other, 0, 0x2d)\r\n      result := and(\r\n        eq(mload(clone), mload(other)),\r\n        eq(mload(add(clone, 0xd)), mload(add(other, 0xd)))\r\n      )\r\n    }\r\n  }\r\n}\r\n\r\n\r\ncontract ProductFactory is CloneFactory {\r\n\r\n    address private masterContract;\r\n\r\n    event ProductCreated(address newAddress);\r\n\r\n    constructor(address _masterContract){\r\n        masterContract = _masterContract;\r\n    }\r\n\r\n    function createProduct(string calldata _name, string calldata _manufacturer_name, string calldata _prod_location, uint256 _prod_date) external{\r\n        Product p = Product(createClone(masterContract));\r\n        p.init(_name, _manufacturer_name, _prod_location, _prod_date, msg.sender);\r\n        emit ProductCreated(address(p));\r\n    }\r\n\r\n}\r\n\r\n\r\n\r\n",
  "sourcePath": "C:\\Users\\Riccardo\\Project\\GitRepo\\dapp\\smartcontract\\contracts\\ProductFactory.sol",
  "compiler": {
    "name": "solc",
    "version": "0.8.11+commit.d7f03943.Emscripten.clang"
  },
  "schemaVersion": "3.4.4",
  "updatedAt": "2022-02-19T17:52:40.589Z",
  "devdoc": {
    "kind": "dev",
    "methods": {},
    "version": 1
  },
  "userdoc": {
    "kind": "user",
    "methods": {},
    "version": 1
  }
}